:100000000C9434000C9451000C9451000C94510049
:100010000C9451000C9451000C9451000C9451001C
:100020000C9451000C9451000C9451000C9451000C
:100030000C9451000C9451000C9451000C945100FC
:100040000C9451000C9451000C9451000C945100EC
:100050000C9451000C9451000C9451000C945100DC
:100060000C9451000C94510011241FBECFEFD4E02A
:10007000DEBFCDBF11E0A0E0B1E0ECEFF7E002C0E1
:1000800005900D92AE32B107D9F721E0AEE2B1E0B2
:1000900001C01D92A233B207E1F70E94C6000C9482
:1000A000FC030C940000ECE7F0E080818064808326
:1000B00080818F778083EAE7F0E0808183608083AE
:1000C00080818B7F80838081806280838081806853
:1000D0008083EBE7F0E080818E7F808380818D7F5D
:1000E000808380818B7F808308951092C5008CE08F
:1000F0008093C400E0ECF0E080818260808388E13E
:100100008093C100E2ECF0E086E080838083089574
:10011000ECE7F0E080818160808380818D7F808347
:10012000808184608083808188608083AAE7B0E0DA
:100130008C9180648C938081806280838091780030
:100140009091790090933101809330010895ECE70C
:10015000F0E080818160808380818D7F80838081D9
:10016000846080838081877F8083AAE7B0E08C9160
:1001700080648C93808180628083809178009091EC
:10018000790090932F0180932E010895CF93DF93F0
:1001900000D000D0CDB7DEB784B1806C84B987B110
:1001A00017B8809181008F7E8093810080918100BB
:1001B000886080938100809180008D7F8093800093
:1001C00080918000816080938000809181008B7F8E
:1001D00080938100809181008E7F80938100809147
:1001E0008100826080938100809180008F7E809367
:1001F000800080918000806280938000229A0E941B
:100200007500C12CD12C7601212C312C412C512C84
:10021000612C712C19821A8280E091E00E94D50134
:100220000E9453000E94880060913001709131015A
:1002300080E090E00E94D80220E030E040E85BE3FC
:100240000E948F0320E030E040EA50E40E948F03D8
:100250004B015C010E94A902CB010E94E80183ECE2
:1002600099E00197F1F700C000008AE091E00E9458
:10027000D5010E9453000E94A70060912E01709149
:100280002F0180E090E00E94D80220E030E040E8BA
:100290005BE30E948F0320E030E040EA50E40E94DC
:1002A0008F038B018C839B830E94A902CB010E9448
:1002B000E80183EC99E00197F1F700C00000980194
:1002C0004C815B81B401C5010E94A40218169CF008
:1002D00098014C815B81B30189819A810E94A402BB
:1002E0008823D9F020E030E040EF51E4C701B601A7
:1002F0000E94370210C09401A501B101C2010E9401
:10030000A402882351F020E030E040EF51E4C7011F
:10031000B6010E9438026B017C0120E030E046E922
:1003200053E4C701B6010E94A40287FD12C020E079
:1003300030EC4FE055E4C701B6010E948A0318165D
:1003400074F4C12C90ECD92E9FE0E92E95E4F92E9F
:1003500006C0C12CD12C86E9E82E83E4F82E84E176
:1003600091E00E94D501C701B6010E94A9022B01AC
:100370003C01CB010E94E80150928B0040928A0020
:1003800087EA91E60197F1F700C00000140125010A
:1003900038019C8199838B818A833ECF9091C000E4
:1003A00095FFFCCF8093C60008950F931F93CF93C2
:1003B0008C01C0E0F801EC0FF11D8081882321F051
:1003C0000E94CE01CF5FF6CFCF911F910F9108957C
:1003D0000F931F93CF93DF938C0160E177E20E942C
:1003E000230280E3860F0E94CE01C80168EE73E00D
:1003F0000E942302CB01CAE0D0E0BE010E9423028A
:10040000805D0E94CE01C80164E670E00E94230274
:10041000CB01BE010E942302805D0E94CE01C80173
:10042000BE010E942302182FCB01BE010E942302AD
:10043000805D0E94CE0180E3810FDF91CF911F91FB
:100440000F910C94CE01AA1BBB1B51E107C0AA1F40
:10045000BB1FA617B70710F0A61BB70B881F991F65
:100460005A95A9F780959095BC01CD0108955058F3
:10047000BB27AA270E944F020C9450030E944203FC
:1004800038F00E94490320F039F49F3F19F426F414
:100490000C943F030EF4E095E7FB0C943903E92F2D
:1004A0000E94610358F3BA17620773078407950720
:1004B00020F079F4A6F50C9483030EF4E0950B2E4E
:1004C000BA2FA02D0B01B90190010C01CA01A001A6
:1004D0001124FF27591B99F0593F50F4503E68F101
:1004E0001A16F040A22F232F342F4427585FF3CF42
:1004F000469537952795A795F0405395C9F77EF413
:100500001F16BA0B620B730B840BBAF09150A1F05B
:10051000FF0FBB1F661F771F881FC2F70EC0BA0FE1
:10052000621F731F841F48F4879577956795B79569
:10053000F7959E3F08F0B0CF9395880F08F0992764
:10054000EE0F9795879508950E94150308F481E0B2
:1005500008950E94690388F09F5798F0B92F992752
:10056000B751B0F0E1F0660F771F881F991F1AF09E
:10057000BA95C9F714C0B13091F00E948303B1E07D
:1005800008950C948303672F782F8827B85F39F07C
:10059000B93FCCF3869577956795B395D9F73EF437
:1005A00090958095709561957F4F8F4F9F4F0895DF
:1005B000E89409C097FB3EF49095809570956195FD
:1005C0007F4F8F4F9F4F9923A9F0F92F96E9BB27B3
:1005D0009395F695879577956795B795F111F8CF2F
:1005E000FAF4BB0F11F460FF1BC06F5F7F4F8F4F9A
:1005F0009F4F16C0882311F096E911C0772321F090
:100600009EE8872F762F05C0662371F096E8862F27
:1006100070E060E02AF09A95660F771F881FDAF77E
:10062000880F9695879597F90895990F0008550FAB
:10063000AA0BE0E8FEEF16161706E807F907C0F068
:1006400012161306E407F50798F0621B730B840B70
:10065000950B39F40A2661F0232B242B252B21F44A
:1006600008950A2609F4A140A6958FEF811D811DEA
:10067000089597F99F6780E870E060E008959FEF24
:1006800080EC089500240A94161617061806090629
:10069000089500240A9412161306140605060895F8
:1006A000092E0394000C11F4882352F0BB0F40F480
:1006B000BF2B11F460FF04C06F5F7F4F8F4F9F4FC0
:1006C000089557FD9058440F551F59F05F3F71F042
:1006D0004795880F97FB991F61F09F3F79F08795A9
:1006E0000895121613061406551FF2CF4695F1DF32
:1006F00008C0161617061806991FF1CF86957105C2
:10070000610508940895E894BB2766277727CB01F5
:1007100097F908950E94150308F48FEF08950E9439
:10072000A2030C9450030E94420338F00E94490334
:1007300020F0952311F00C9439030C943F031124FD
:100740000C9484030E94610370F3959FC1F3950F8D
:1007500050E0551F629FF001729FBB27F00DB11D45
:10076000639FAA27F00DB11DAA1F649F6627B00DD5
:10077000A11D661F829F2227B00DA11D621F739FBE
:10078000B00DA11D621F839FA00D611D221F749FCC
:100790003327A00D611D231F849F600D211D822F13
:1007A000762F6A2F11249F5750409AF0F1F088233A
:1007B0004AF0EE0FFF1FBB1F661F771F881F915067
:1007C0005040A9F79E3F510580F00C9439030C94DA
:1007D00084035F3FE4F3983ED4F38695779567955D
:1007E000B795F795E7959F5FC1F7FE2B880F911D91
:0C07F0009695879597F90895F894FFCF2F
:1007FC000A4C44522031203A20000A4C44522035F5
:10080C00203A20000A536572766F206D6F746F72F8
:0E081C0020706F736974696F6E203A200000BF
:00000001FF
