:100000000C9434000C9449000C9449000C94490061
:100010000C9449000C9449000C9449000C9449003C
:100020000C9449000C9449000C9449000C9449002C
:100030000C9449000C9449000C9449000C9449001C
:100040000C9449000C9449000C9449000C9449000C
:100050000C9449000C9449000C9449000C944900FC
:100060000C9449000C94490011241FBECFEFD4E03A
:10007000DEBFCDBF11E0A0E0B1E0E6E1F6E002C0F6
:1000800005900D92AA30B107D9F70E945E000C943A
:1000900009030C9400001092C5008CE08093C4000A
:1000A000E0ECF0E080818260808388E18093C10091
:1000B000E2ECF0E086E08083808308950E944B00AC
:1000C0008AB18FEF8AB984B1806C84B987B117B8CF
:1000D000809181008F7E8093810080918100886073
:1000E00080938100809180008D7F8093800080913B
:1000F0008000816080938000809181008B7F80935D
:100100008100809181008E7F8093810080918100A9
:10011000826080938100809180008F7E8093800038
:1001200080918000806280938000229A80917C0080
:10013000806480937C0080917C008F7780937C002A
:1001400080917A00836080937A0080917A008B7F1F
:1001500080937A0080917A00806280937A00809107
:100160007A00806880937A0080917B008E7F8093F4
:100170007B0080917B008D7F80937B0080917B0052
:100180008B7F80937B0080917C00816080937C00DA
:1001900080917C008D7F80937C0080917C008460C6
:1001A00080937C0080917C00877F80937C0080918D
:1001B0007A00806480937A0080917C0080628093D2
:1001C0007C00C0E080E091E00E944F0160917800E7
:1001D0007091790080E090E00E94E50120E030E03D
:1001E00040E85BE30E94740220E030E040EA50E423
:1001F0000E9474026B017C010E94B601CB010E9437
:10020000620120E030E045E653E4C701B6010E94F8
:10021000B10187FD0AC020E030E040E050E4C701B2
:10022000B6010E946F021816FCF420E030E845E6A3
:1002300053E4C701B6010E946F0287FF27C023E382
:1002400033E343E250E4C701B6010E94B10118163E
:10025000DCF420E030E048EC52E4C701B6010E9433
:1002600074020E94B601C62F8C2F90E090938B00F1
:1002700080938A002FE986E891E0215080409040E9
:10028000E1F700C000009ECFCCE2EECFC0EDECCF96
:100290009091C00095FFFCCF8093C60008950F9306
:1002A0001F93CF938C01C0E0F801EC0FF11D80810A
:1002B000882321F00E944801CF5FF6CFCF911F9194
:1002C0000F9108950F931F93CF93DF938C0160E1FB
:1002D00077E20E949D0180E3860F0E944801C801D9
:1002E00068EE73E00E949D01CB01CAE0D0E0BE0140
:1002F0000E949D01805D0E944801C80164E670E093
:100300000E949D01CB01BE010E949D01805D0E9463
:100310004801C801BE010E949D01182FCB01BE01FA
:100320000E949D01805D0E94480180E3810FDF9162
:10033000CF911F910F910C944801AA1BBB1B51E157
:1003400007C0AA1FBB1FA617B70710F0A61BB70B45
:10035000881F991F5A95A9F780959095BC01CD01EA
:1003600008950E94220208F481E008950E944E023E
:1003700088F09F5798F0B92F9927B751B0F0E1F066
:10038000660F771F881F991F1AF0BA95C9F714C016
:10039000B13091F00E946802B1E008950C946802B7
:1003A000672F782F8827B85F39F0B93FCCF386954F
:1003B00077956795B395D9F73EF4909580957095AC
:1003C00061957F4F8F4F9F4F0895E89409C097FB29
:1003D0003EF490958095709561957F4F8F4F9F4F1C
:1003E0009923A9F0F92F96E9BB279395F695879560
:1003F00077956795B795F111F8CFFAF4BB0F11F423
:1004000060FF1BC06F5F7F4F8F4F9F4F16C08823C9
:1004100011F096E911C0772321F09EE8872F762FFF
:1004200005C0662371F096E8862F70E060E02AF040
:100430009A95660F771F881FDAF7880F969587952C
:1004400097F90895990F0008550FAA0BE0E8FEEF01
:1004500016161706E807F907C0F012161306E40788
:10046000F50798F0621B730B840B950B39F40A2681
:1004700061F0232B242B252B21F408950A2609F45F
:10048000A140A6958FEF811D811D089557FD9058BD
:10049000440F551F59F05F3F71F04795880F97FB48
:1004A000991F61F09F3F79F0879508951216130602
:1004B0001406551FF2CF4695F1DF08C01616170631
:1004C0001806991FF1CF8695710561050894089566
:1004D000E894BB2766277727CB0197F908950E94F8
:1004E000220208F48FEF08950E9487020C94F8020C
:1004F0000E94EA0238F00E94F10220F0952311F0E8
:100500000C94E1020C94E70211240C9469020E94FD
:10051000460270F3959FC1F3950F50E0551F629FFF
:10052000F001729FBB27F00DB11D639FAA27F00D4C
:10053000B11DAA1F649F6627B00DA11D661F829F73
:100540002227B00DA11D621F739FB00DA11D621F58
:10055000839FA00D611D221F749F3327A00D611D75
:10056000231F849F600D211D822F762F6A2F112457
:100570009F5750409AF0F1F088234AF0EE0FFF1F8A
:10058000BB1F661F771F881F91505040A9F79E3FE1
:10059000510580F00C94E1020C9469025F3FE4F392
:1005A000983ED4F3869577956795B795F795E79537
:1005B0009F5FC1F7FE2B880F911D9695879597F940
:1005C000089597F99F6780E870E060E008959FEFD5
:1005D00080EC089500240A941616170618060906DA
:1005E000089500240A9412161306140605060895A9
:1005F000092E0394000C11F4882352F0BB0F40F431
:10060000BF2B11F460FF04C06F5F7F4F8F4F9F4F70
:060610000895F894FFCFED
:0A0616000A4C6F6F70203A200000BC
:00000001FF
